S01700004763634170706C69636174696F6E312E737265635B
S11300004BC000005EC000005CC000005AC000008D
S113001058C0000056C0000054C0000052C0000088
S113002050C000004EC000004CC000004AC0000098
S113003048C0000046C0000044C0000042C00000A8
S113004040C000003EC000003CC000003AC00000B8
S113005038C0000036C0000034C0000032C00000C8
S113006030C000002EC000002CC000002AC00000D8
S113007028C0000026C0000024C0000022C00000E8
S113008020C000001EC000001CC000001AC00000F8
S113009018C0000016C0000011241FBECFEFD0E22C
S11300A0DEBFCDBF11E0A0E0B1E0E2ECF1E000E0A2
S11300B00BBF02C007900D92AC31B107D9F702D043
S11300C07EC09ECFCF93DF93CDB7DEB76B970FB6CD
S11300D0F894DEBF0FBECDBF8BE1E0E0F1E0DE01BE
S11300E0119601900D928A95E1F784B7877F84BFBA
S11300F00FB6F894A89580916000886180936000A1
S1130100109260000FBE829AE1E6F0E080E88083FE
S11301101082E9ECF0E080818860808383E380933F
S1130120CC001092CD0086E08093CA0040E050E0FD
S11301306894EE24E2F8E8ECF0E00F2EFAE1FF2EEA
S1130140F02D0EEC10E081B38E2581BB2FEF81EEF4
S113015094E0215080409040E1F700C0000080818D
S113016085FFFDCF9A01A5ECBEE41AD0969587953C
S11301709695879596958795F89E9001F99E300DF2
S11301801124DA01A21BB30B81E090E08C0F9D1FB8
S1130190A80FB91F8C91D8018C934F5F5F4FD3CFB9
S11301A0A29FB001B39FC001A39F700D811D1124B4
S11301B0911DB29F700D811D1124911D0895F89415
S10501C0FFCF6B
S11301C2486920447265672066726F6D2041543914
S10F01D230555342313238370D0A00001A
S9030000FC
