:100000000C944C000C9463000C9463000C946300FB
:100010000C9463000C9463000C9463000C946300D4
:100020000C9463000C9463000C9463000C946300C4
:100030000C9463000C9463000C9463000C946300B4
:100040000C9463000C9463000C9463000C946300A4
:100050000C9463000C9463000C9463000C94630094
:100060000C9463000C9463000C9463000C94630084
:100070000C9463000C9463000C9463000C94630074
:100080000C9463000C9463000C9463000C94630064
:100090000C9463000C94630011241FBECFEFD0E2D8
:1000A000DEBFCDBF11E0A0E0B1E0E6E5F1E000E0A9
:1000B0000BBF02C007900D92A630B107D9F70E947E
:1000C00065000C94A9000C940000CF93DF9300D03E
:1000D00000D01F92CDB7DEB785E0E0E0F1E0DE01B1
:1000E000119601900D928A95E1F784B7877F84BFBE
:1000F0000FB6F894A89580916000886180936000A5
:10010000109260000FBE80E8809361001092610041
:100110008091C90088608093C90083E38093CC00FC
:100120001092CD0086E08093CA0080E090E020919C
:10013000C80025FFFCCFFC01E370FF2721E030E081
:100140002C0F3D1FE20FF31F20812093CE0001965C
:06015000EECFF894FFCF92
:06015600486F6C6100001F
:00000001FF
